:020000040800F2
:10000000000003203D200008E9080008EB08000874
:10001000ED080008EF080008F108000800000000E3
:10002000000000000000000000000000F3080008CD
:10003000F508000800000000F7080008F9080008AB
:100040008D2000088D2000088D2000088D200008DC
:100050008D2000088D2000088D2000088D200008CC
:100060008D2000088D2000088D2000088D200008BC
:100070008D2000088D2000088D2000088D200008AC
:100080008D2000088D2000088D2000088D2000089C
:100090008D2000088D2000088D2000088D2000088C
:1000A0008D2000088D2000088D2000088D2000087C
:1000B0008D2000088D2000088D2000088D2000086C
:1000C0008D2000088D2000088D2000088D2000085C
:1000D0008D2000088D2000088D2000088D2000084C
:1000E0008D2000088D2000088D2000088D2000083C
:1000F0008D2000088D2000088D2000088D2000082C
:100100008D2000088D2000088D2000088D2000081B
:100110008D2000088D2000088D2000088D2000080B
:100120008D2000088D2000088D2000088D200008FB
:100130008D2000088D2000088D2000088D200008EB
:100140008D2000088D2000088D2000088D200008DB
:100150008D2000088D2000088D2000088D200008CB
:100160008D2000088D2000088D2000088D200008BB
:100170008D2000088D2000088D2000088D200008AB
:100180008D2000088D2000088D2000088D2000089B
:100190008D2000088D2000088D2000088D2000088B
:0C01A0008D2000088D2000088D20000834
:1001AC000348044B834202D0034B03B118477047FA
:1001BC000C0000200C000020000000000548064B3D
:1001CC001B1AD90F01EBA301491002D0034B03B149
:1001DC00184770470C0000200C00002000000000A5
:1001EC0010B5064C237843B9FFF7DAFF044B13B173
:1001FC000448AFF300800123237010BD0C000020D5
:10020C00000000009020000808B5044B1BB1044905
:10021C000448AFF30080BDE80840CFE700000000C1
:10022C00100000209020000870B50F4B0F4DAB4212
:10023C00A3EB050607D0B610002455F8043B013497
:10024C009847A642F9D801F01DFF094D094B5E1BDA
:10025C00AB424FEAA60606D0002455F8043B013405
:10026C009847A642F9D870BDC8200008C8200008DD
:10027C00C8200008CC200008830730B547D0541E96
:10028C00002A3ED0CAB2034601E0013C39D303F840
:10029C00012B9D07F9D1032C2CD9CDB205EB0525EB
:1002AC000F2C05EB054535D9A4F1100222F00F0CEB
:1002BC0003F1100EE6444FEA121C1A46C2E900552F
:1002CC00C2E9025510327245F8D10CF1010214F05A
:1002DC000C0F03EB021204F00F0C13D0ACF104035F
:1002EC0023F003030433134442F8045B9342FBD121
:1002FC000CF003042CB1C9B21C4403F8011BA3423B
:10030C00FBD130BD64461346002CF4D1F9E703460B
:10031C001446C0E71A46A446E0E700BF53B94AB9F1
:10032C00002908BF00281CBF4FF0FF314FF0FF30F1
:10033C0000F06AB9ADF1080C6DE904CE00F006F8D6
:10034C00DDF804E0DDE9022304B070472DE9F04745
:10035C00089D0E4604460F46002B4AD194468C4508
:10036C00B2FA82F260D942B1C2F12003974020FA6E
:10037C0003F30CFA02FC1F4394404FEA1C4E1FFA85
:10038C008CF6B7FBFEF1230C0EFB117743EA074307
:10039C0001FB06F098420AD91CEB030301F1FF376D
:1003AC0080F01581984240F21281023963441B1A85
:1003BC00A4B2B3FBFEF00EFB103344EA034400FB83
:1003CC0006F6A6420AD91CEB040400F1FF3380F0B8
:1003DC000081A64240F2FD806444023840EA0140AC
:1003EC00A41B00211DB1D4400023C5E90043BDE886
:1003FC00F0878B4205D90DB1C5E9000100210846F3
:10040C00F5E7B3FA83F1002946D1B34202D3824215
:10041C0000F2F580841A66EB030201201746002DCA
:10042C00E5D0C5E90047E2E7002A40F09380A1EB54
:10043C000C034FEA1C471FFA8CFE0121B3FBF7F6A5
:10044C0007FB1630230C43EA00430EFB06F09842E0
:10045C0008D91CEB030306F1FF3802D2984200F2D4
:10046C00D08046461B1AA4B2B3FBF7F007FB10333F
:10047C0044EA03440EFB00FEA64508D91CEB040419
:10048C0000F1FF3302D2A64500F2B6801846A4EB69
:10049C000E0440EA0640A5E7C1F120078B4022FA82
:1004AC0007FC4CEA030C06FA01FE20FA07F426FAC4
:1004BC0007F344EA0E0400FA01F84FEA1C404FEA35
:1004CC001449B3FBF0FE1FFA8CF600FB1E3349EA0D
:1004DC0003430EFB06F9994502FA01F20BD91CEB0A
:1004EC0003030EF1FF3A80F08580994540F282803B
:1004FC00AEF1020E6344A3EB0909A4B2B9FBF0F30D
:10050C0000FB139944EA094403FB06F6A64208D9FA
:10051C001CEB040403F1FF3068D2A64266D9023BFF
:10052C00644443EA0E40A41BA0FB02E6B4427346AB
:10053C00B14652D34FD05DB1B8EB030264EB090462
:10054C0004FA07F722FA01F31F43CC40C5E9007403
:10055C0000214CE7C2F1200120FA01F30CFA02FC55
:10056C0026FA01F1964033434FEA1C471FFA8CFEE2
:10057C00B1FBF7F007FB1016190C41EA064100FB22
:10058C000EF68E4204FA02F408D91CEB010100F1BC
:10059C00FF382DD28E422BD902386144891B9BB275
:1005AC00B1FBF7F607FB161143EA014306FB0EF10C
:1005BC00994208D91CEB030306F1FF3814D2994277
:1005CC0012D9023E63445B1A46EA004136E73946CB
:1005DC00EDE6184602E7F045ADD2BEEB020366EB42
:1005EC000C060138B146A6E74646ECE7034698E709
:1005FC004046D3E7D6467EE76444023847E70846D0
:10060C000DE7023E63442DE7704700BFF0B58DB097
:10061C0000240794089409940A940B940194394B80
:10062C001A6B42F004021A631A6B02F00402019274
:10063C00019A02941A6B42F080021A631A6B02F050
:10064C0080020292029A03941A6B42F001021A631E
:10065C001A6B02F001020392039A04941A6B42F093
:10066C0002021A631A6B02F002020492049A0594B5
:10067C001A6B42F008021A631A6B02F00802059218
:10068C00059A06941A6B42F040021A631B6B03F036
:10069C0040030693069B1C4F224644F281013846C8
:1006AC0000F092FE194D22464021284600F08CFEA7
:1006BC004FF4005307934FF488130893099407A938
:1006CC00134800F07DFD44F2810307930126089640
:1006DC0009940A9407A9384600F072FD4023079349
:1006EC00089609940A9407A9284600F069FD80230E
:1006FC0007930894099407A9284600F061FD0DB0F2
:10070C00F0BD00BF00380240000402400018024057
:10071C000008024072B6FEE710B51448144B036093
:10072C00144B00221A7080215970E1219970DA70F3
:10073C001A715A7143604FF4000383600E4BC3600F
:10074C000E4B036140F2F453436101F0DFF858B9EA
:10075C000B4C382200212046FFF78EFD212323600D
:10076C004FF44003636110BDFFF7D4FF5C0500201C
:10077C0000800240280000200C060020AC0600205F
:10078C004C07002008B50A480A4B03604FF4E133CC
:10079C00436000238360C36003610C224261836168
:1007AC00C36101F0B1F900B908BDFFF7B3FF00BF99
:1007BC00140500200048004008B50B484FF0A0433A
:1007CC000360042303710222C271002383714272FD
:1007DC0001228272C37203738273C37301F0C4F972
:1007EC0000B908BDFFF796FF3000002000B595B0AA
:1007FC003022002108A8FFF73FFD00230393049348
:10080C000593069307930193204A116C41F0805194
:10081C001164126C02F080520192019A02931C4BEB
:10082C001A6842F440421A601B6803F44043029376
:10083C00029B012308934FF4A023099302230E93E8
:10084C004FF480020F9204221092A822119212935C
:10085C000723139308A800F073F998B90F23039397
:10086C0002230493002305934FF4A05306934FF4F3
:10087C0080530793052103A800F0CCFB20B915B0D9
:10088C005DF804FBFFF746FFFFF744FF003802401A
:10089C000070004008B500F037FEFFF7A7FFFFF728
:1008AC00B5FEFFF739FFFFF76DFFFFF785FF094C2A
:1008BC004FF48041204600F08DFD8021204600F051
:1008CC0089FD2021044800F085FD4FF47A7000F07A
:1008DC0047FEECE70004024000000240FEE7FEE7A2
:1008EC00FEE7FEE7FEE770477047704708B500F07B
:1008FC0025FE08BD82B0002100910B4B5A6C42F4CE
:10090C0080425A645A6C02F480420092009A01911F
:10091C001A6C42F080521A641B6C03F080530193E2
:10092C00019B02B0704700BF00380240F0B58DB09B
:10093C0000230793089309930A930B9302683D4B8A
:10094C009A4201D00DB0F0BD00240094A3F5904361
:10095C001A6B42F000721A631A6B02F0007200926A
:10096C00009A01941A6B42F080621A631A6B02F0BF
:10097C0080620192019A02941A6B42F000621A632F
:10098C001A6B02F000620292029A03941A6B42F004
:10099C0004021A631A6B02F004020392039A049481
:1009AC001A6B42F001021A631A6B02F001020492F4
:1009BC00049A05941A6B42F002021A631A6B02F045
:1009CC0002020592059A06941A6B42F040021A63D1
:1009DC001B6B03F040030693069B322307930227FD
:1009EC00089703260A960B250B9507A9124800F0C9
:1009FC00E7FB86230793089709940A960B9507A99A
:100A0C000E4800F0DDFB4FF4005307930897099450
:100A1C000A960B9507A90A4800F0D2FB4FF4205315
:100A2C000793089709940A960B9507A9054800F0B7
:100A3C00C7FB87E70080024000080240000002402C
:100A4C00000402400018024000B589B00023039353
:100A5C0004930593069307930268154B9A4202D0B0
:100A6C0009B05DF804FB0021019103F5F8331A6C11
:100A7C0042F480221A641A6C02F480220192019AC8
:100A8C0002911A6B42F008021A631B6B03F0080305
:100A9C000293029B4FF440730393022304930323AA
:100AAC0006930723079303A9024800F089FBD7E7B5
:100ABC0000480040000C024070B588B0002303933E
:100ACC0004930593069307930368B3F1A04F01D0E9
:100ADC0008B070BD00250195174C236B43F0010342
:100AEC002363236B03F001030193019B4FF4E85341
:100AFC00039302230493032306930A2307930F4EB5
:100B0C0003A9304600F05CFB4FF40073039304958B
:100B1C00059503A9304600F053FB636B43F080034B
:100B2C0063630295636C43F480436364636C03F406
:100B3C0080430293029BCBE7003802400000024046
:100B4C00002800F0E08170B582B00446036813F011
:100B5C00010F3BD09F4B9B6803F00C03042B2CD054
:100B6C009C4B9B6803F00C03082B21D06368B3F5F6
:100B7C00803F4FD0B3F5A02F52D0964B1A6822F479
:100B8C0080321A601A6822F480221A606368002B83
:100B9C0050D000F0DFFC05468E4B1B6813F4003F71
:100BAC0014D100F0D7FC401B6428F5D90320B1E127
:100BBC00884B5B6813F4800FD8D0864B1B6813F4FA
:100BCC00003F03D06368002B00F09F81236813F073
:100BDC00020F54D07F4B9B6813F00C0F3ED07D4B13
:100BEC009B6803F00C03082B33D0E368002B68D010
:100BFC00794B01221A6000F0ADFC0546754B1B6861
:100C0C0013F0020F54D100F0A5FC401B0228F5D9BB
:100C1C0003207FE16F4A136843F480331360B5E718
:100C2C006C4B1A6842F480221A601A6842F48032C3
:100C3C001A60ABE700F08EFC0546664B1B6813F49C
:100C4C00003FC3D000F086FC401B6428F5D903207C
:100C5C0060E1604B5B6813F4800FC6D15D4B1B6881
:100C6C0013F0020F03D0E368012B40F05081594A76
:100C7C00136823F0F803216943EAC1031360236866
:100C8C0013F0080F42D063696BB3534B0122C3F8C6
:100C9C00802E00F05FFC05464E4B5B6F13F0020F8D
:100CAC0034D100F057FC401B0228F5D9032031E168
:100CBC00484A136823F0F803216943EAC10313601F
:100CCC00DDE7454B00221A6000F044FC0546414B21
:100CDC001B6813F0020FD2D000F03CFC401B022822
:100CEC00F5D9032016E13C4B0022C3F8802E00F00E
:100CFC0031FC0546374B5B6F13F0020F06D000F04A
:100D0C0029FC401B0228F5D9032003E1236813F0CA
:100D1C00040F77D02F4B1B6C13F0805F33D1002363
:100D2C0001932C4B1A6C42F080521A641B6C03F02A
:100D3C0080530193019B0125284B1B6813F4807F82
:100D4C0023D0A368012B34D0052B38D0214B1A6F3C
:100D5C0022F001021A671A6F22F004021A67A368C4
:100D6C00002B3DD000F0F6FB06461A4B1B6F13F020
:100D7C00020F46D100F0EEFB801B41F28833984203
:100D8C00F3D90320C6E00025D6E7144A136843F4D0
:100D9C008073136000F0DEFB0646104B1B6813F4E7
:100DAC00807FCED100F0D6FB801B0228F5D9032022
:100DBC00B0E0084A136F43F001031367CFE7054B0C
:100DCC001A6F42F004021A671A6F42F001021A6796
:100DDC00C5E700BF003802400000474200700040E9
:100DEC0000F0B8FB0646524B1B6F13F0020F08D0F5
:100DFC0000F0B0FB801B41F288339842F3D90320FA
:100E0C0088E0EDB9A369002B00F08380484A926812
:100E1C0002F00C02082A51D0022B17D0454B0022AD
:100E2C001A6600F097FB0446414B1B6813F0007FD9
:100E3C0042D000F08FFB001B0228F5D9032069E09B
:100E4C003B4A136C23F080531364DBE7394B0022CD
:100E5C001A6600F07FFB0546354B1B6813F0007FCC
:100E6C0006D000F077FB401B0228F5D9032051E097
:100E7C00E369226A1343626A43EA8213A26A520844
:100E8C00013A43EA0243E26A43EA0263284A5360A6
:100E9C00284B01221A6600F05DFB0446244B1B68AC
:100EAC0013F0007F06D100F055FB001B0228F5D98A
:100EBC0003202FE000202DE000202BE0012B2BD075
:100ECC001B4B5B6803F48001E269914226D103F06D
:100EDC003F02216A8A4223D1616A47F6C0721A40E6
:100EEC00B2EB811F1ED103F44031A26A5208013AC1
:100EFC00B1EB024F18D103F07063E26AB3EB026FEF
:100F0C0014D1002006E001207047012002E00120EE
:100F1C0000E0002002B070BD0120FBE70120F9E7E2
:100F2C000120F7E70120F5E70120F3E70120F1E7C5
:100F3C00003802400000474208B5334B9B6803F071
:100F4C000C03042B5BD0082B5BD12F4B5A6802F09F
:100F5C003F025B6813F4800F2CD02B4B5868C0F306
:100F6C0088104FEA401CBCEB000C6EEB0E0E4FEAE7
:100F7C008E1343EA9C634FEA8C11B1EB0C0163EBCB
:100F8C000E03DB0043EA5173C90011EB000C43F173
:100F9C000003590200234FEA4C2041EADC51FFF7D1
:100FAC00BDF9194B5B68C3F3014301335B00B0FB24
:100FBC00F3F008BD144B5868C0F388104FEA401C7E
:100FCC00BCEB000C6EEB0E0E4FEA8E1343EA9C63E7
:100FDC004FEA8C11B1EB0C0163EB0E03DB0043EA1F
:100FEC005173C90011EB000C43F10003990200236B
:100FFC004FEA8C2041EA9C51FFF790F9D1E7034866
:10100C00D7E70348D5E700BF0038024000127A004A
:10101C000024F400002800F09B8070B50D460446B7
:10102C004F4B1B6803F00F038B4208D2CBB24C4AD8
:10103C001370136803F00F038B4240F08B8023680E
:10104C0013F0020F17D013F0040F04D0454A936825
:10105C0043F4E0539360236813F0080F04D0414A23
:10106C00936843F4604393603E4A936823F0F00323
:10107C00A1680B439360236813F0010F32D06368AF
:10108C00012B21D09A1E012A25D9364A126812F05A
:10109C00020F61D033498A6822F0030213438B603C
:1010AC0000F058FA06462F4B9B6803F00C0362685D
:1010BC00B3EB820F16D000F04DFA801B41F288334F
:1010CC009842F0D9032042E0264A126812F4003FFD
:1010DC00E0D101203BE0234A126812F0007FD9D105
:1010EC00012034E01E4B1B6803F00F03AB4207D901
:1010FC00EAB21B4B1A701B6803F00F03AB422DD1E5
:10110C00236813F0040F06D0164A936823F4E053B7
:10111C00E1680B439360236813F0080F07D0114A62
:10112C00936823F46043216943EAC1039360FFF79A
:10113C0003FF0C4B9B68C3F303130B4AD35CD840DF
:10114C000A4B18600A4B186800F0B8F9002070BD03
:10115C00012070470120FAE70120F8E70120F6E7AB
:10116C00003C024000380240B0200008080000207B
:10117C0004000020014B1868704700BF08000020D5
:10118C0008B5FFF7F7FF044B9B68C3F38223034AB0
:10119C00D35CD84008BD00BF00380240A82000082E
:1011AC0008B5FFF7E7FF044B9B68C3F34233034AD0
:1011BC00D35CD84008BD00BF00380240A82000080E
:1011CC0000230F2B00F2F68070B582B066E08568C4
:1011DC004FEA430E032404FA0EF425EA0405CC6806
:1011EC0004FA0EF42C438460446824EA02044A682E
:1011FC00C2F300129A40224342605DE0DC080834DE
:10120C0050F8242003F00705AD004FF00F0E0EFA36
:10121C0005FE22EA0E0E0A69AA4042EA0E0240F8C6
:10122C0024205DE0092200E0002202FA0EF22A439B
:10123C000234614D45F82420604A94686FEA0C0230
:10124C0024EA0C054E6816F4801F01D04CEA040504
:10125C005A4CA560E46802EA04054E6816F4001FB7
:10126C0001D04CEA0405554CE560646802EA0405BB
:10127C004E6816F4003F01D04CEA04054F4C6560F3
:10128C00246822404D6815F4803F01D04CEA0402DA
:10129C004A4C226001330F2B00F28A8001229A40C3
:1012AC000C6804EA020C32EA0404F3D14C6804F032
:1012BC000304013C012C8AD94A6802F00302032A78
:1012CC0009D0C4685D000322AA4024EA02048A689B
:1012DC00AA402243C2604A6802F00302022A8DD05F
:1012EC0004684FEA430E032202FA0EF224EA0204C7
:1012FC004A6802F0030202FA0EF2224302604A68C4
:10130C0012F4403FC6D0002201922D4A546C44F492
:10131C0080445464526C02F480420192019A9C08FD
:10132C00A51C254A52F8255003F0030E4FEA8E0EE9
:10133C000F2202FA0EF225EA0205224A90423FF4ED
:10134C0073AF02F58062904222D002F58062904227
:10135C0020D002F5806290421ED002F5806290424D
:10136C001CD002F5806290421AD002F58062904245
:10137C0018D002F58062904216D002F5806290423D
:10138C0014D002F5806290423FF44CAF0A224CE735
:10139C0001224AE7022248E7032246E7042244E7F7
:1013AC00052242E7062240E707223EE708223CE7F7
:1013BC0002B070BD704700BF00380140003C0140D6
:1013CC0000380240000002400AB1816170470904F4
:1013DC0081617047436901EA030221EA030141EA92
:1013EC000241816170470000002808DB0901C9B285
:1013FC0000F1604000F5614080F80013704700F088
:10140C000F000901C9B2014B1954704714ED00E0EB
:10141C0000B500F00700C0F1070CBCF1040F28BFA9
:10142C004FF0040C031D062B0FD9C31E4FF0FF3ECB
:10143C000EFA0CF021EA000199400EFA03FE22EAA2
:10144C000E0241EA02005DF804FB0023EEE7000007
:10145C00074AD36823F4E0631B041B0C000200F45E
:10146C00E060034343F0BF6343F40033D360704741
:10147C0000ED00E010B50446054BD868C0F302201F
:10148C00FFF7C6FF01462046FFF7AEFF10BD00BFB9
:10149C0000ED00E00138B0F1807F0BD24FF0E0237B
:1014AC005861054AF02182F8231000209861072228
:1014BC001A6170470120704700ED00E010B504463A
:1014CC000E4B1A784FF47A73B3FBF2F30C4A106894
:1014DC00B0FBF3F0FFF7DEFF68B90F2C01D9012048
:1014EC000AE0002221464FF0FF30FFF7C3FF054B07
:1014FC001C60002000E0012010BD00BF0000002097
:10150C00080000200400002008B50B4B1A6842F4B8
:10151C0000721A601A6842F480621A601A6842F407
:10152C0080721A600320FFF793FF0020FFF7C6FFBD
:10153C00FFF7E0F9002008BD003C0240034A1168A7
:10154C00034B1B780B441360704700BF84070020CB
:10155C0000000020014B1868704700BF8407002072
:10156C0038B50446FFF7F6FF0546B4F1FF3F02D04D
:10157C00044B1B781C44FFF7EDFF401BA042FAD331
:10158C0038BD00BF000000205079137943EA0023D6
:10159C0007480B50D07893781B0443EA00635078CB
:1015AC0043EA002312781343024A8B50704700BF62
:1015BC00408002404480024030B4002208E0C468FD
:1015CC00DC6051F80C3043F4400341F80C3001322C
:1015DC00032A1FD8C16802EB82034FEAC30C01EB4C
:1015EC00C303002441F80C405C609C60DC60941DDB
:1015FC0040F8243051F80C4044F4801441F80C406D
:10160C00022ADCD8541C04EB8404C56805EBC40422
:10161C00DC60D6E700238362C268036803F580535D
:10162C001A6130BC704710B4002202E00169D96025
:10163C000132032A28D8046902EB82034FEAC30C57
:10164C0004EBC303002144F80C1059609960D96075
:10165C00196259624FF0004144F80C10416941F491
:10166C0080415960596821F00041596002F1120122
:10167C0040F82130022AD9D80469511C01EB8101B0
:10168C0004EBC104DC60D3E70023C3650366836607
:10169C00C36683650269036803F58053DA605DF8FD
:1016AC00044B704770B505460C46026813683C49FC
:1016BC001940A37B5B06207C002861D14FF400000D
:1016CC000343607C00285DD14FF480000343A06885
:1016DC000343E07F43EA004360690343A07F002893
:1016EC0052D14FF400500343207F43EA0033A069EA
:1016FC000343207943EA802394F82000002845D145
:10170C004FF400700343E07B43EAC013606A034369
:10171C0094F8280043EA00130B4313602B681E68EF
:10172C000120FFF71DFF2B681E6029688A6922F0D3
:10173C00BE021204120CA36C1B0494F84C0038BBB0
:10174C0080200343206D034394F85500012821D0D9
:10175C000020034394F8560001281DD000200343B9
:10176C0094F85400012819D00020034313438B61D3
:10177C002B689C690120FFF7F3FE2B689C6170BD00
:10178C0000209DE70020A1E70020ACE70020B9E78E
:10179C000020D6E70820DCE70420E0E70220E4E79D
:1017AC000F8120FD70B505460C46026802F580538A
:1017BC009B692B491940237B002B4DD14FF0806343
:1017CC00607B43EA4063607F002847D14FF4801070
:1017DC000343A07B43EA405360690343207F43EA01
:1017EC00C013A07F43EA8013206A034394F82400BB
:1017FC0043EA80030B4302F5805293612B6803F597
:10180C0080539E690120FFF7ABFE2B6803F58053D4
:10181C009E612279A36843EA4263A2691343226959
:10182C00134394F8252043EAC213A26A43EA8203C5
:10183C00226813432A6843F4000302F580521360B4
:10184C002B6803F580531C680120FFF789FE2B6879
:10185C0003F580531C6070BD0023B1E70020B7E78F
:10186C00233FDEF870B5A4B0064601258DF83C5038
:10187C008DF83D5000240D948DF84B408DF84A5056
:10188C008DF848408DF83A508DF830508DF84C401A
:10189C008DF83B4014948DF854401D948DF878408D
:1018AC001F948DF882408DF880404FF48043109344
:1018BC004FF4006311938DF881400BA9FFF7F2FEF2
:1018CC008DF80C508DF80D508DF81D508DF80E5074
:1018DC0005948DF81C408DF81E4008948DF824500A
:1018EC008DF804504FF4803302934FF48003069329
:1018FC004FF4005304938DF825500A9400946946D4
:10190C003046FFF74FFF24B070BD000000286CD0AC
:10191C0030B583B00446D0F88430002B34D000238B
:10192C000193334B5A6C42F480425A645B6C03F45F
:10193C0080430193019B2F4B5A6822F400025A609A
:10194C005A68A1680A435A605B68236803F58053A0
:10195C001A6842F001021A60FFF7FCFD0546236885
:10196C0003F580531B6813F0010F13D0FFF7F2FD42
:10197C00401BB0F5FA7FF2D90423C4F88830E02379
:10198C00C4F8843001202EE02023C0F88430FEF708
:10199C00CDFFC4E72046FFF765FF2046FFF70CFE9E
:1019AC002046FFF740FE626800212046FFF7ECFD61
:1019BC002268D36B43F40273D3632268D2F80C31E0
:1019CC0043F4003343F06003C2F80C312268D2F8C0
:1019DC00103143F40313C2F810310020C4F888000E
:1019EC001023C4F8843003B030BD0120704700BF11
:1019FC00003802400038014010B5044602681369F3
:101A0C0023F44053C1680B431361836802691A4382
:101A1C0043691A43C3691A430168CB6823F416431C
:101A2C0023F00C031343CB600268536923F4407317
:101A3C0081690B4353610368314A934206D002F526
:101A4C008062934202D0FFF79BFB01E0FFF7A8FBFB
:101A5C00E369B3F5004F29D00021031849411B1845
:101A6C0041F10001C90041EA5371DB0018186368A9
:101A7C004FEA83024FEA937341F10001FEF74EFCEB
:101A8C00204AA2FB00314909642303FB11031B010B
:101A9C003233A2FB03235B0903F0F00202EB0112C9
:101AAC0003F00F03216813448B6010BD0023021850
:101ABC0043EB0301121841F10001C90041EA5271D4
:101ACC00D200101841F10001626892185B41FEF7D8
:101ADC0025FC0C4AA2FB00314909642303FB1103CA
:101AEC00DB003233A2FB03235B095A0002F4F872C9
:101AFC0002EB011203F00703216813448B60D4E757
:101B0C00001001401F85EB5160B310B5044690F8EE
:101B1C00413013B3242384F841302268D36823F472
:101B2C000053D3602046FFF767FF2268136923F444
:101B3C00904313612268536923F02A03536122688E
:101B4C00D36843F40053D36000206064202384F8EE
:101B5C00413084F84230606310BD80F84030FEF7AD
:101B6C0073FFD7E70120704730B583B000287AD0D7
:101B7C000446056890F89534C3B1032384F8953472
:101B8C00B5F1A04F17D0206800F0E4F8237C8DF855
:101B9C000030231D0ECB206800F093F870B10223A7
:101BAC0084F895340125284603B030BD80F8943470
:101BBC00FEF782FFE1E70023A371E4E70021206830
:101BCC0000F0FAF9024608B9034617E0022384F83C
:101BDC0095340125E7E703EBC30104EB81010120F8
:101BEC0048750B75CB8500200876C861086203EB3D
:101BFC00C30104EB810148620133DBB220799842C6
:101C0C00E9D816E002EBC20304EB8303002183F84E
:101C1C00551283F8542283F85812C3F85C12C3F897
:101C2C00601202EBC20304EB8303C3F864120132AB
:101C3C00D2B29042E6D8237C8DF80030231D0ECB17
:101C4C00206800F0DDF8054620B1022384F89534B5
:101C5C000125A8E700236374012384F895342068D8
:101C6C0000F098F99FE701259DE782B000230193CE
:101C7C00019B01330193019BB3F1706F1CD8036975
:101C8C00002BF5DA0A23019302E0019B013B01933F
:101C9C00019B002BF9D1036943F001030361019B04
:101CAC0001330193019BB3F1706F08D8036913F0F2
:101CBC00010FF4D1002000E0032002B07047032094
:101CCC00FBE784B010B5044603A880E80E009DF82D
:101CDC001130012B21D1A36B23F48033A363E36870
:101CEC0023F4840323F04003E360E36823F44013FC
:101CFC00E3609DF81830012B0AD02046FFF7B5FFA2
:101D0C009DF80E30012B1CD0BDE8104004B070477C
:101D1C00E36843F48013E360EFE7E36843F04003C8
:101D2C00E3602046FFF7A1FF9DF8153023B9A36BA4
:101D3C0043F48033A363E3E7A36B23F48033A363FF
:101D4C00DEE7A36843F00603A360A36843F0200317
:101D5C00A360D9E7836823F00103836000207047F8
:101D6C0082B000230193019B01330193019BB3F1DA
:101D7C00706F15D80369002BF5DA002301938901E4
:101D8C0041F020010161019B01330193019BB3F1EF
:101D9C00706F08D8036913F0200FF4D1002000E015
:101DAC00032002B070470320FBE782B000230193AD
:101DBC00019B01330193019BB3F1706F13D803693D
:101DCC00002BF5DA0023019310230361019B0133EF
:101DDC000193019BB3F1706F08D8036913F0100FD6
:101DEC00F4D1002000E0032002B070470320FBE791
:101DFC00D0F800381943C0F80018002070470000D4
:101E0C0084B0F8B5044607A880E80E00002306E06D
:101E1C0003F1400204EB82020021516001330E2BCE
:101E2C00F6D99DF8266006BBD4F8043843F00203BB
:101E3C00C4F80438A36B43F40013A363A36B23F41B
:101E4C000023A363A36B23F48023A3630023C4F8B0
:101E5C00003E9DF82130012B15D19DF81F306BB938
:101E6C0000212046FFF7C4FF11E0A36B23F40013FD
:101E7C00A363A36B43F40023A363E7E7012120468C
:101E8C00FFF7B6FF03E003212046FFF7B1FF102157
:101E9C002046FFF765FF054600B101252046FFF7F8
:101EAC0084FF00B1012504F5006C0023CCF8103040
:101EBC00CCF81430CCF81C300AE0CBB94FF00060F1
:101ECC00C2F8000900220A614FF67F328A600133A2
:101EDC009DF81C10994210D904EB431202F51061C5
:101EEC00D2F800090028E8DB0020C2F80009E9E775
:101EFC004FF09040C2F80009E4E700230AE0BBB1C0
:101F0C004FF09047C2F8007B002202614FF67F32FF
:101F1C0082600133994210D904EB431202F5306010
:101F2C00D2F8007B002FEADB0027C2F8007BEBE73E
:101F3C004FF00067C2F8007BE6E7DCF8103023F4C2
:101F4C008073CCF810300023A3616FF08043636181
:101F5C009DF81E301BB9A36943F01003A361A2695D
:101F6C000B4B1343A3619DF822301BB1A36943F0C3
:101F7C000803A361012E04D02846BDE8F84004B044
:101F8C007047A36943F0804343F00403A361F3E774
:101F9C0000383C80D0F8003E23F00303C0F8003E2C
:101FAC00D0F8043843F00203C0F80438002070471E
:101FBC00406900F00100704738B50546C36823F04E
:101FCC00C043C360012913D019BBC36843F08043DD
:101FDC00C36000240A20FFF7C3FA0A342846FFF72F
:101FEC00E7FF08B1C72CF5D9C82C14D0002038BD98
:101FFC00C36843F00053C36000240A20FFF7B0FA13
:10200C000A342846FFF7D4FF0128EDD0C72CF4D9A9
:10201C00EAE70120EBE70120E9E70000034AD2F8E8
:10202C00883043F47003C2F88830704700ED00E04C
:10203C00DFF834D0FFF7F2FF0C480D490D4A0023AE
:10204C0002E0D458C4500433C4188C42F9D30A4A61
:10205C000A4C002301E013600432A242FBD3FEF7CA
:10206C00E3F8FEF717FC7047000003200000002087
:10207C000C000020D02000080C0000208807002055
:10208C00FEE70000F8B500BFF8BC08BC9E467047E0
:0C209C00F8B500BFF8BC08BC9E467047B9
:1020A800000000000102030400000000000000001E
:0820B8000102030406070809F8
:0820C00098E2FF7F010000001F
:0420C80015020008F5
:0420CC00ED0100081A
:0C20D00001000000100000000024F400DB
:040000050800203D92
:00000001FF
